:020000040800F2
:1000000000000320C1020008F92C0008FB2C0008A6
:10001000FD2C0008FF2C0008012D00080000000046
:10002000000000000000000000000000032D000898
:10003000052D000800000000072D0008092D00080C
:10004000B5240008B5240008B5240008B52400082C
:10005000B5240008B5240008B5240008B52400081C
:10006000B5240008B5240008B5240008B52400080C
:10007000B5240008B5240008B5240008B5240008FC
:10008000412D0008432D0008B5240008A52D0008C7
:10009000452D0008852D0008B5240008B52400086A
:1000A000B5240008B5240008B5240008B5240008CC
:1000B000B5240008B5240008B5240008B5240008BC
:1000C000B5240008B5240008B5240008B5240008AC
:1000D000B5240008312D0008B5240008B524000817
:1000E000B5240008B5240008B5240008B52400088C
:1000F000B5240008B5240008B5240008B52400087C
:10010000B5240008B5240008B5240008B52400086B
:10011000B5240008B5240008551C0008B5240008C3
:10012000B5240008B5240008B5240008B52400084B
:10013000B5240008B5240008B5240008B52D000832
:10014000752D0008952D0008B5240008B524000879
:10015000112D0008B5240008212D0008B524000841
:10016000B5240008B5240008B5240008B52400080B
:10017000B5240008B5240008B524000800000000DC
:10018000B5240008B5240008B5240008B5240008EB
:10019000B5240008B5240008B5240008B5240008DB
:1001A000B5240008B5240008B524000800B583B0C4
:1001B00002F0F6F8304B314A1360314A1360314B8C
:1001C000314A03E011681960043304322F498B422D
:1001D000F8D32A4B1A682E4B9A4200D0FEE7284BE0
:1001E0001A682C4B9A42F9D1234B2B4A13602B4AA5
:1001F00013602B4B02E000221A600433294A934219
:10020000F9D3254B1B6813B9244B1B6803B1FEE7D8
:1002100002F0D2F8694601A802F09EF8224B234C66
:10022000E41AA4100025AC4214DC214B214CE41A42
:10023000A4100025AC4213DC0099019802F076FC72
:1002400005461D4B1D4CE41AA410002C0EDC28465C
:1002500002F05FF8144B53F8253098470135E2E778
:10026000134B53F8253098470135E3E7013C124B17
:1002700053F824309847E8E7BABADECA00000020F5
:10028000D409002000000020387A0008D809002096
:100290007856341232547698D8090020140D002074
:1002A000D8090020180D0020EC030008EC0300081A
:1002B000EC030008EC030008EC030008EC03000862
:1002C00008B5FFF773FF00BEFEE71EF0040F0CBF7A
:1002D000EFF30880EFF309807146374A10472DE9A4
:1002E000F04182B004468846084B5E6B9F6B9D6A66
:1002F000074802F039F8CDF800803B4632462946DF
:10030000204602F05DF800BEFEE700BF00ED00E011
:100310002477000800BEFEE71EF0040F0CBFEFF3C9
:100320000880EFF309807146244A10472DE9F04117
:1003300082B004468846084B5E6B9F6B9D6A0748F7
:1003400002F012F8CDF800803B463246294620469E
:1003500002F036F800BEFEE700ED00E0347700085A
:100360001EF0040F0CBFEFF30880EFF30980714615
:10037000134A10472DE9F04182B004468846084BE5
:100380005E6B9F6B9D6A074801F0EEFFCDF8008021
:100390003B4632462946204602F012F800BEFEE7F0
:1003A00000ED00E04077000800BEFEE700BEFEE77B
:1003B00000BEFEE770470000DF0200082D030008C2
:0403C00075030008B9
:1003C400387A000800000020D8090020387A000894
:1003D4000000001000000010D8090020180D0020B3
:0803E4000000001000000010F1
:1004000008B50B4B1A6842F400721A601A6842F47D
:1004100080621A601A6842F480721A60032000F049
:1004200041FC0F2001F0CEFB00F0FCFE002008BDD7
:10043000003C0240024A136801331360704700BF5A
:10044000600B0020014B1868704700BF600B002054
:1004500010B582B00190FFF7F5FF0446FFF7F2FFF9
:10046000001B019B9842F9D302B010BD70B44B69D8
:1004700001229A40414BD3F8000240F00100C3F83A
:100480000002D3F8000220F47C50C3F80002D3F835
:1004900000024C6A40EA0420C3F80002D3F81C4270
:1004A000D0430440C3F81C42CB69B3B9334BD3F8F3
:1004B0000C420440C3F80C424C69CE688D8845EA72
:1004C0000645483443F834504D698E680C8844EA38
:1004D0000644483503EBC5035C60CB69012B20D093
:1004E0008B69002B35D1254CD4F804320340C4F875
:1004F00004320B692BB9214BD3F814422040C3F8C6
:1005000014020B69012B2BD00B6A012B2FD01B4A35
:10051000D2F8003223F00103C2F80032002070BC90
:100520007047164BD3F80C421443C3F80C424C6985
:100530000E688D8845EA0645483443F834504D69C5
:100540008E688C8944EA0644483503EBC5035C6039
:10055000C6E70A4CD4F804321343C4F80432C8E79F
:100560000648D0F814321343C0F81432CCE7034BDA
:10057000D3F81C120A43C3F81C22C8E700640040E9
:10058000002800F0BB8038B5044690F8383003B33B
:10059000022384F838302268136823F002031360C2
:1005A0002268136843F001031360FFF74BFF054611
:1005B00023685A6812F0010F10D1FFF743FF401B68
:1005C0000A28F5D9032084F83800002384F839304C
:1005D00038BD80F8393002F04DFBD9E75A6812F087
:1005E000010F7CD0A269012A50D01A6822F0800243
:1005F0001A60E369012B4ED02268136823F0400390
:100600001360236A012B4CD02268136823F0200367
:100610001360636A012B4AD02268136823F0100329
:100620001360A36A012B48D02268136823F00803E3
:100630001360E36A012B46D02268136823F0040399
:1006400013602168A368E268134322691343626957
:1006500013436268013A1343CB612268136823F0A5
:1006600001031360FFF7EEFE054623685A6812F097
:10067000010F2ED0FFF7E6FE401B0A28F5D9032014
:1006800084F83800002384F8393038BD1A6842F005
:1006900080021A60ADE72268136843F040031360DC
:1006A000AFE72268136843F020031360B1E72268C4
:1006B000136843F010031360B3E72268136843F034
:1006C00008031360B5E72268136843F0040313605E
:1006D000B7E75B6813F0010F08D0002300E00023A8
:1006E00033B9042384F83830012038BD0123F7E7FB
:1006F0000020E063012384F8383038BD01207047C2
:10070000F8B503689A6812F0806F08D19A6812F001
:10071000006F04D19A6812F0805F00F0C38090F8F7
:100720003920012A00F0C380012280F8392090F896
:100730003820D2B2222A0CD0122280F838209A68AF
:1007400012F0806F09D19A6812F0006F5DD0012518
:1007500004E0322280F83820F1E7002505F1180284
:1007600012019C5804F001049C50026B9368002B0A
:100770004DD1066805F118031B01F4581768D268BB
:1007800042EA47522243F2500E460446026B136976
:1007900003F00F031361036805F1180109010B440D
:1007A0005A6822F00F025A6003680B445A68006BC3
:1007B000006902435A602268206BC77D837D1B0459
:1007C00043EA0763477D43EA0723007D03432F0184
:1007D0003A44C2F888312268206B90F81BE0837E8F
:1007E0001B0443EA0E6390F819E043EA0E23007EEF
:1007F00003433A44C2F88C312268535843F0010352
:100800005350FFF71FFE07462AE00225A6E70768B8
:1008100005F11804240157F804E0566843EAC603BA
:10082000D268134343EA0E033B51ADE726B1FFF70D
:1008300009FEC01B864213D2032084F8380000232F
:1008400084F83930F8BD012D14D023689A68194B0B
:10085000934314BF01230023A3B1B6F1FF3FE5D1B9
:10086000002DF0D123689A68134B934314BF0123E2
:100870000023F1E723689A68104B934314BF0123C8
:100880000023E9E794F83830DBB2322B06D001239D
:1008900084F83830002084F83900F8BD222384F829
:1008A0003830F7E7042380F838300120F8BD022003
:1008B000F8BD00BF0000031003000004000300089F
:1008C00090F83830DBB2012B03D0122B01D002207C
:1008D000704790F83930012B3CD010B4012380F8D8
:1008E000393090F83830DBB2122B28D0222380F830
:1008F00038300022C2630468636943F48073636123
:100900000468636943F4007363610468636943F4D2
:10091000806363610468636943F40063636104682E
:10092000636943F40043636180F8392059B1026878
:10093000536943F010035361002010BC7047322309
:1009400080F83830D5E70268536943F002035361F9
:100950000020F2E702207047704708B5026853692B
:1009600023F00103536190F83830DBB2122B0BD027
:1009700090F83830DBB2322B20D0012380F83830A9
:10098000FFF7EAFF002008BD0268536923F4807373
:1009900053610268536923F4007353610268536919
:1009A00023F4806353610268536923F40063536145
:1009B0000268536923F400435361D9E7222380F886
:1009C0003830DDE710B5426B046801F11B031B01F1
:1009D000E35803F004039360436B9A68002A6ED1D6
:1009E000046801F11B021201A258520D1A60446BF7
:1009F000026801F11B031B01D25802F00202E260FF
:100A0000446B02681A44526802F00F022261446B80
:100A1000026813445B68C3F30723E361446B026815
:100A20000B011A44D2F8B8212275446B02681A44AB
:100A3000D2F8B821120A6275446B02681A44D2F8DF
:100A4000B821120CA275446B02681A44D2F8B8217E
:100A5000120EE275446B02681A44D2F8BC21227669
:100A6000446B02681A44D2F8BC21120A6276446BC5
:100A700002681A44D2F8BC21120CA276446B0268B8
:100A80001344D3F8BC311B0EE37601BB036820226C
:100A9000DA600268536923F00203536190F838303A
:100AA000DBB2222B1CD090F83830DBB2322B31D0A5
:100AB000012380F8383002F06FF8002010BD046880
:100AC00001F11B021201A258D2085A608FE7036895
:100AD00020221A610268536923F010035361DDE795
:100AE0000268536923F4807353610268536923F4E5
:100AF000007353610268536923F480635361026891
:100B0000536923F4006353610268536923F400437B
:100B10005361C8E7122380F83830CCE770470000F3
:100B200010B5044603685A6912F0010F16D0986890
:100B30009968584A0A409B6823F06F4323F47C036A
:100B40001B0C1B045449814305D052498A4202D0F0
:100B5000524A934202D12046FFF7FFFE2368DA682B
:100B60005B6903F0020312F0030F01D0002B57D191
:100B700023681A695B6903F0100312F0030F01D0B8
:100B8000002B52D1236898695A6902F4807259691E
:100B900001F4004110F0010F05D022B119B1E26B50
:100BA00042F00102E26398695A6902F400725969DD
:100BB00001F4004110F0020F05D022B119B1E26B2F
:100BC00042F00202E26398695A6902F4806259694C
:100BD00001F4004110F0040F05D022B119B1E26B0D
:100BE00042F00402E26398695A6902F400625969AA
:100BF00001F4004110F0700F2DD062B359B39A691F
:100C000002F07002302A29D014D9502A2BD0602A41
:100C10002ED0402A1BD1E26B42F04002E26316E084
:100C200000212046FFF7CEFEA2E701212046FFF774
:100C3000C9FEA7E7102A06D0202A08D1E26B42F0AD
:100C40001002E26303E0E26B42F00802E2639A6999
:100C500022F070029A61E36B7BB910BDE26B42F047
:100C60002002E263F3E7E26B42F08002E263EEE728
:100C7000E26B42F48072E263E9E7094801F0B2FEF8
:100C8000236804225A60012384F838302046FFF795
:100C900045FFE2E700030008030000040000031022
:100CA000E8750008074AD36823F4E0631B041B0CB3
:100CB000000200F4E060184340F0BF6040F40030F0
:100CC000D060704700ED00E030B4164BDB68C3F332
:100CD0000223C3F10704042C28BF04241D1D062D84
:100CE00017D9033B012505FA04F4013C2140994042
:100CF00005FA03F3013B1340194300280BDB0901FC
:100D0000C9B200F1604000F5614080F8001330BCCA
:100D100070470023E6E700F00F000901C9B2024B5B
:100D20001954F4E700ED00E014ED00E0420900F092
:100D30001F00012303FA00F0014B43F82200704723
:100D400000E100E030B405682C6824F480242C60B5
:100D5000046863608368402B05D00368996003686A
:100D6000DA6030BC704703689A600368D960F8E7BE
:100D70000268D3B2103B0B49A1FB03131B090A49BC
:100D8000C95C4165032B06D822F47F7222F003026E
:100D90000265006D704722F47F7222F00302043274
:100DA0000265F6E7ABAAAAAAF0750008002837D0BA
:100DB00038B50346416A022280F83520046822686B
:100DC000184810405A689D682A43DD682A431D6907
:100DD0002A435D692A439D692A43DD692A431D6AC6
:100DE0002A430243042913D0226019684A6922F079
:100DF0000702586A024304280FD01C464A6118466D
:100E0000FFF7B6FF0020E064012384F8353038BDD9
:100E1000D96A186B01430A43E6E7986A0243ECE794
:100E2000012070473F8010F038B590F83440012C15
:100E300001D1022038BD0446012084F8340002208C
:100E400084F835002568286820F0010028602046D5
:100E5000FFF778FF2268136843F01E0313602268CF
:100E6000536943F0800353612268136843F0010320
:100E70001360002038BD000038B50446056D2A68AF
:100E8000416D08238B401A4219D003681A6812F08A
:100E9000040F14D01A6822F004021A60426D08236D
:100EA0009340AB60C36C43F00103C364042380F838
:100EB0003530002380F83430836C03B198472A68BA
:100EC000616D584B8B401A421AD023685A6912F050
:100ED000800F15D05A6922F080025A61626D514B21
:100EE0009340AB60E36C43F00203E364042384F8B3
:100EF0003530002384F83430A36C0BB1204698477A
:100F00002A68616D484B8B401A421AD023681A68D0
:100F100012F0020F15D01A6822F002021A60626DF8
:100F2000414B9340AB60E36C43F00403E364042360
:100F300084F83530002384F83430A36C0BB120469C
:100F400098472A68616D10238B401A422DD0226881
:100F5000116811F0080F28D0116811F4802F11D0FA
:100F6000AB6023681A6812F4002F03D1312384F890
:100F7000353016E01B6813F4002F12D0412384F89B
:100F800035300EE0136813F4807F03D1136823F02B
:100F900008031360626D10239340AB60312384F823
:100FA0003530236C0BB1204698472A68616D2023A9
:100FB0008B401A4234D02268116811F0100F2FD0E4
:100FC000116811F4802F13D0AB6023681A6812F4F3
:100FD000002F04D1636C1BB32046984738BD1B68B3
:100FE00013F4002F1CD0E36BD3B12046984738BDD3
:100FF000136813F4807F03D1136823F01003136088
:10100000626D20239340AB60E36CE364112384F8AA
:101010003530002384F83430E36B0BB12046984719
:1010200038BD00BF0100800004008000F0B583B02F
:1010300000244BE04FEAD40E0EF1080E50F82E209B
:1010400004F00706B6000F27B74022EA07020F692F
:1010500007FA06F6324340F82E2046E0092600E063
:10106000002606FA0EF632430233644E46F8232079
:10107000634B1A68EB4302EA03064F6817F4803F9C
:1010800001D045EA02065E4A1660526803EA02068B
:101090004F6817F4003F01D045EA0206584A5660EF
:1010A000926803EA02064F6817F4801F01D045EAF0
:1010B0000206534A9660D26813404E6816F4001F29
:1010C00001D045EA02034E4AD36001340F2C00F2EE
:1010D00092800123A3400A6803EA0205AB42F4D1DF
:1010E0004A68022AA6D0122AA4D006684FEA440E03
:1010F000032202FA0EF2D24316404F6807F00307AC
:1011000007FA0EF73E4306604E68771E012F03D99B
:10111000112E01D0122E0FD186681640CF6807FA23
:101120000EF73E438660466826EA03034E68C6F320
:101130000016A64033434360C3681A408B6803FA25
:101140000EF31A43C2604B6813F0805FBDD00023DA
:1011500001932C4B5A6C42F480425A645B6C03F44A
:1011600080430193019BA3089E1C244A52F8262029
:1011700004F003064FEA860E0F2606FA0EF622EA60
:101180000602214FB8423FF46BAF204EB04222D04E
:1011900006F58066B04220D006F58066B0421ED0CB
:1011A00006F58066B0421CD006F58066B0421AD0C3
:1011B00006F58066B04218D006F58066B04216D0BB
:1011C00006F58066B04214D006F58066B0423FF462
:1011D00045AF0A2645E7012643E7022641E70326F5
:1011E0003FE704263DE705263BE7062639E70726C5
:1011F00037E7082635E703B0F0BD00BF00380140EF
:10120000003C01400038024000000240000402405F
:1012100012B909048161704781617047436959407F
:10122000416170477047000010B582B00023019300
:10123000234B1A6C42F080521A641B6C03F08053EB
:101240000193019B4FF4803393FAA3F3B3FA83F332
:1012500003F1845303F560339B0001221A60FFF70A
:10126000F1F80446174B5B6813F4803F08D1FFF791
:10127000E9F8001BB0F57A7FF4D9032002B010BD65
:101280004FF4003393FAA3F3B3FA83F303F18453D7
:1012900003F560339B0001221A60FFF7D3F8044680
:1012A000084B5B6813F4003F07D1FFF7CBF8001B36
:1012B000B0F57A7FF4D90320E0E70020DEE700BF35
:1012C000003802400070004030B583B00446036827
:1012D00013F0010F2ED0A34B9B6803F00C03042BDB
:1012E0001FD0A04B9B6803F00C03082B14D022796D
:1012F0009D4B1A706368002B40D0FFF7A3F805469A
:10130000984B1B6813F4003F14D1FFF79BF8401B68
:101310006428F5D9032070E1924B5B6813F4800FC9
:10132000E5D0904B1B6813F4003F03D06368002B9B
:1013300000F06081236813F0020F4BD0894B9B684B
:1013400013F00C0F2ED0874B9B6803F00C03082B77
:1013500023D0E368002B64D00122844B1A60FFF78E
:1013600071F805467F4B1B6813F0020F4AD1FFF757
:1013700069F8401B0228F5D903203EE1FFF762F827
:101380000546784B1B6813F4003FD3D0FFF75AF89B
:10139000401B6428F5D903202FE1724B5B6813F4DE
:1013A000800FD6D16F4B1B6813F0020F04D0E36897
:1013B000012B01D0012020E16A48036823F0F803E3
:1013C0002169F82292FAA2F2B2FA82F201FA02F24A
:1013D00013430360236813F0080F46D0636993B387
:1013E0000122634B1A60FFF72DF805465D4B5B6FDA
:1013F00013F0020F39D1FFF725F8401B0228F5D969
:101400000320FAE05748036823F0F8032169F82223
:1014100092FAA2F2B2FA82F201FA02F213430360E4
:10142000D8E70022514B1A60FFF70CF805464D4BE8
:101430001B6813F0020FCDD0FFF704F8401B022801
:10144000F5D90320D9E00022494B1A60FEF7FAFFD4
:101450000546444B5B6F13F0020F06D0FEF7F2FF18
:10146000401B0228F5D90320C7E0236813F0040FBE
:101470001FD1A369002B00F0BF803A4A926802F0A6
:101480000C02082A00F0BB80022B59D00022394BF5
:101490001A60FEF7D7FF0446324B1B6813F0007F3B
:1014A00000F0A680FEF7CEFF001B0228F4D903202F
:1014B000A3E0002301932B4B1A6C42F080521A6474
:1014C0001B6C03F080530193019B2B4A136843F478
:1014D00080731360FEF7B6FF0546274B1B6813F4B5
:1014E000807F06D1FEF7AEFF401B0228F5D903200E
:1014F00083E0227A214B1A70A36883B1FEF7A2FF22
:101500000546184B1B6F13F0020FB2D1FEF79AFF7E
:10151000401B41F288339842F3D903206DE0FEF777
:1015200091FF05460F4B1B6F13F0020FA1D0FEF782
:1015300089FF401B41F288339842F3D903205CE0D5
:1015400000220C4B1A60FEF77DFF0546054B1B6819
:1015500013F0007F14D0FEF775FF401B0228F5D969
:1015600003204AE0003802400238024000004742AF
:10157000800E4742600047420070004070380240D1
:10158000E369226A1343616A47F6C07292FAA2F2D3
:10159000B2FA82F201FA02F21343A26A5208013A45
:1015A0004FF4403191FAA1F1B1FA81F18A4013432D
:1015B000E16A4FF0706292FAA2F2B2FA82F201FA94
:1015C00002F213430F4A536001220F4B1A60FEF7D9
:1015D00039FF04460B4B1B6813F0007F06D1FEF762
:1015E00031FF001B0228F5D9032006E0002004E0AB
:1015F000002002E0012000E0002003B030BD012007
:10160000FBE700BF0038024060004742584B1B68B0
:1016100003F00F038B4209D2CBB2554A1370136803
:1016200003F00F03994201D00120704770B50368A1
:1016300013F0020F06D04F4A936823F0F00384683A
:10164000234393600D460446036813F0010F60D0F6
:101650004368012B26D09A1E012A2AD9454A1268CE
:1016600012F0020F00F0818042498A6822F00302E2
:1016700013438B60FEF7E6FE06466368012B1FD01E
:10168000022B2CD0032B39D03A4B9B6813F00C0F54
:101690003FD0FEF7D7FE801B41F288339842F3D942
:1016A000032070BD334A126812F4003FDCD10120E0
:1016B00070BD304A126812F0007FD5D1012070BD94
:1016C0002C4B9B6803F00C03042B22D0FEF7BAFED0
:1016D000801B41F288339842F2D9032070BD254B1C
:1016E0009B6803F00C03082B13D0FEF7ABFE801BA6
:1016F00041F288339842F2D9032070BD1D4B9B689C
:10170000FEF7A0FE801B41F288339842F6D90320F1
:1017100070BD174B1B6803F00F039D4209D2EAB25C
:10172000134B1A701B6803F00F039D4201D0012078
:1017300070BD236813F0040F06D00E4A936823F49B
:10174000E053E1680B439360236813F0080F07D060
:10175000084A936823F46043216943EAC103936014
:101760000F2000F02FFA002070BD012070BD00BFD7
:10177000003C024000380240214B9B6803F00C0300
:10178000042B3AD0082B01D01E4870471C4B5868D8
:1017900000F03F005B6813F4800F1ED01A4AB2FBC2
:1017A000F0F2174B586847F6C073184093FAA3F34A
:1017B000B3FA83F3D84000FB02F0114B5B6803F4EB
:1017C00040334FF4403292FAA2F2B2FA82F2D3409E
:1017D00001335B00B0FBF3F070470A4AB2FBF0F252
:1017E000074B586847F6C073184093FAA3F3B3FA4F
:1017F00083F3D84000FB02F0DFE70348704700BFE7
:10180000003802400024F40000127A0008B5FFF707
:10181000B3FF084B9B6803F0F003F02292FAA2F2A8
:10182000B2FA82F2D340044AD35CD840034B18602A
:1018300008BD00BF00380240F87500080C00002009
:1018400008B5FFF7E3FF074B9B6803F4E0534FF441
:10185000E05292FAA2F2B2FA82F2D340024AD35C88
:10186000D84008BD00380240F875000808B5FFF7F9
:10187000CDFF074B9B6803F460434FF4604292FA3C
:10188000A2F2B2FA82F2D340024AD35CD84008BD39
:1018900000380240F87500080F2303600B4B9A686C
:1018A00002F0030242609A6802F0F00282609A68D5
:1018B00002F4E052C2609B68DB0803F4E05303616A
:1018C000034B1B6803F00F030B60704700380240A6
:1018D000003C024070470268D36843F00103D360C4
:1018E0000268136843F001031360002070477047DB
:1018F00070477047704710B5044603681A6912F0C4
:10190000020F11D0DA6812F0020F0DD06FF0020250
:101910001A610123037603689B6913F0030F70D0EB
:10192000FFF7E6FF0023237623681A6912F0040FFD
:1019300012D0DA6812F0040F0ED06FF004021A61B0
:101940000223237623689B6913F4407F5FD02046EF
:10195000FFF7CEFF0023237623681A6912F0080FE1
:1019600012D0DA6812F0080F0ED06FF008021A6178
:10197000042323762368DB6913F0030F4ED020463F
:10198000FFF7B6FF0023237623681A6912F0100FC1
:1019900012D0DA6812F0100F0ED06FF010021A6138
:1019A000082323762368DB6913F4407F3DD020466B
:1019B000FFF79EFF0023237623681A6912F0010FB8
:1019C00003D0DA6812F0010F36D123681A6912F0D9
:1019D000800F03D0DA6812F0800F34D123681A69BF
:1019E00012F0400F03D0DA6812F0400F32D12368B2
:1019F0001A6912F0200F03D0DA6812F0200F30D1EC
:101A000010BDFFF774FF2046FFF773FF8AE72046FB
:101A1000FFF76DFF2046FFF76CFF9BE72046FFF7BF
:101A200066FF2046FFF765FFACE72046FFF75FFF44
:101A30002046FFF75EFFBDE76FF001021A61204606
:101A400000F004F9C1E76FF080021A61204600F04F
:101A5000B7F8C3E76FF040021A612046FFF74AFF6C
:101A6000C5E76FF020021A61204600F0A8F8C7E72A
:101A70000368454A90424AD0B0F1804F49D0A2F560
:101A80007C42904247D002F58062904245D002F5F8
:101A90008062904243D002F57842904235D00022D5
:101AA0001AB123F070034A681343374A90423AD080
:101AB000B0F1804F50D0A2F57C4290424ED002F55A
:101AC000806290424CD002F5806290424AD002F58A
:101AD0007842904248D002F57052904246D002F5CA
:101AE0008062904244D002F58062904242D0A2F5DA
:101AF0009832904240D002F5806290423ED002F58A
:101B0000806290420DD000220EE00122C8E701223F
:101B1000C6E70122C4E70122C2E70122C0E7012291
:101B2000BEE7012200E001221AB123F44073CA6823
:101B3000134303608B68C3620B688362124B984245
:101B400020D003F5806398421AD000230BB10B69B3
:101B500003630123436170470122E5E70122E3E7C4
:101B60000122E1E70122DFE70122DDE70122DBE7D5
:101B70000122D9E70122D7E70122D5E70122D3E7E5
:101B80000123E3E70123E1E700000140A8B110B51C
:101B9000044690F839305BB1022384F83930211DB6
:101BA0002068FFF765FF012384F83930002010BD5D
:101BB00080F83830FFF78EFEEEE70120704770475F
:101BC0007047000000B589B0002201463620FFF7BB
:101BD0007BF83620FFF7AAF800230193174B1A6C05
:101BE00042F010021A641B6C03F010030193019B76
:101BF00002A903A8FFF750FE069BBBB9FFF720FE22
:101C00000F4BA3FB00239B0C013B0E480E4A0260C6
:101C100040F2E732C2604360002303618360FFF754
:101C2000B5FF38B1012009B05DF804FBFFF708FEED
:101C30004000E5E70348FFF74EFEF4E700380240B6
:101C400083DE1B43B00C00200010004008B5FEF7F7
:101C5000F1FB08BD08B50248FFF74DFE08BD00BF07
:101C6000B00C002090F83930DBB2212B01D00220DB
:101C700070478368B3F5805F16D00268036A591C09
:101C800001621B785360C38C013B9BB2C384DBB9F8
:101C90000268D36823F08003D3600268D36843F0FE
:101CA0004003D36000207047036A02681B88C3F3B7
:101CB0000803536003691BB9036A02330362E2E756
:101CC000036A01330362DEE7002070472DE9F04725
:101CD00004460268136923F44053C1680B4313613F
:101CE0000168CB6823F4164323F00C038268006973
:101CF000024360690243E06902431343CB602268F8
:101D0000536923F44073A1690B435361E369B3F54D
:101D1000004F62D0D4F80080BB4B984500F01B8187
:101D200003F58063984500F01681FFF789FD00EB0D
:101D3000800000EB80006568AD00B0FBF5F5B34FA7
:101D4000A7FB05356D092E01FFF77AFD00EB80003A
:101D500000EB80006568AD00B0FBF5FAFFF770FDA1
:101D600000EB800000EB80006568AD00B0FBF5F58E
:101D7000A7FB05356D094FF0640909FB15A52D0179
:101D80003235A7FB05356D0905F0F0053544FFF741
:101D900057FD00EB800000EB80006668B600B0FBEA
:101DA000F6F6FFF74DFD00EB800000EB8000636866
:101DB0009B00B0FBF3F0A7FB0030400909FB106962
:101DC0004FEA091909F13209A7FB0937C7F343178D
:101DD0002F44C8F80870BDE8F087D4F8008003F1FC
:101DE000804303F5104398455CD003F58063984524
:101DF00058D0FFF725FD00EB800000EB8000656800
:101E00006D00B0FBF5F5814FA7FB05356D092E017F
:101E1000FFF716FD00EB800000EB800065686D00A9
:101E2000B0FBF5FAFFF70CFD00EB800000EB800043
:101E300065686D00B0FBF5F5A7FB05356D094FF042
:101E4000640909FB15A5ED003235A7FB05356D09C1
:101E50006D0005F4F8753544FFF7F2FC00EB8000E7
:101E600000EB800066687600B0FBF6F6FFF7E8FC52
:101E700000EB800000EB800063685B00B0FBF3F3D5
:101E8000A7FB03235B0909FB13694FEAC90909F1A1
:101E90003209A7FB0937C7F342172F44C8F8087067
:101EA000BDE8F087FFF7E2FC00EB800000EB80006C
:101EB00065686D00B0FBF5F5544FA7FB05356D095E
:101EC0002E01FFF7D3FC00EB800000EB800065687B
:101ED0006D00B0FBF5FAFFF7C9FC00EB800000EBEA
:101EE000800065686D00B0FBF5F5A7FB05356D0951
:101EF0004FF0640909FB15A5ED003235A7FB053548
:101F00006D096D0005F4F8753544FFF7AFFC00EB83
:101F1000800000EB800066687600B0FBF6F6FFF705
:101F2000A5FC00EB800000EB800063685B00B0FB69
:101F3000F3F3A7FB03235B0909FB13694FEAC90904
:101F400009F13209A7FB0937C7F342172F44C8F834
:101F50000870BDE8F087FFF789FC00EB800000EB1C
:101F600080006568AD00B0FBF5F5284FA7FB05358F
:101F70006D092E01FFF77AFC00EB800000EB80007A
:101F80006568AD00B0FBF5FAFFF770FC00EB800070
:101F900000EB80006568AD00B0FBF5F5A7FB0535EB
:101FA0006D094FF0640909FB15A52D013235A7FB1A
:101FB00005356D0905F0F0053544FFF757FC00EBDA
:101FC000800000EB80006668B600B0FBF6F6FFF715
:101FD0004DFC00EB800000EB800063689B00B0FBD1
:101FE000F3F3A7FB03235B0909FB13694FEA091904
:101FF00009F13209A7FB0937C7F343172F44C8F883
:102000000870BDE8F08700BF001001401F85EB514C
:10201000704758B310B5044690F839300BB32423F9
:1020200084F839302268D36823F40053D360204603
:10203000FFF74CFE2268136923F490431361226872
:10204000536923F02A0353612268D36843F4005391
:10205000D3600020E063202384F8393084F83A30DC
:1020600010BD80F83830FFF7D3FFD8E70120704764
:1020700038B590F83940E4B2202C01D0022038BDA8
:1020800000292FD0002A2FD090F83830012B01D111
:10209000022038BD13460546012280F8382001622F
:1020A0008384C3840024C463212280F83920026B16
:1020B0000E48D0632A6B0E4810642A6B0D4890645A
:1020C0002A680432286BFEF7AFFE2B686FF04002DF
:1020D0001A602A68536943F08003536185F83840D9
:1020E000204638BD012038BD012038BDF920000848
:1020F00045210008EB21000808B5836B02681268CF
:1021000012F4807F0CD10022DA8419684A6922F027
:1021100080024A611A68D36843F04003D36008BD67
:10212000184600F0F5FC08BD08B50168CB6823F03F
:102130004003CB60202380F8393000F0E9FC002018
:1021400008BD704708B5806BFFF7FBFF08BD08B5F9
:1021500090F83A30DBB2222B01D0022008BD836810
:10216000B3F5805F0ED0036903BB836A5A1C826299
:10217000026852681A70C38D013B9BB2C385F3B1EC
:10218000002008BD826A036943B903685B68C3F332
:1021900008031380836A02338362ECE703685B6899
:1021A000DBB21380836A01338362E4E7826A531CE3
:1021B000836203685B6803F07F031370DBE70268E8
:1021C000D36823F02003D3600268D36823F48073BC
:1021D000D3600268536923F001035361202380F820
:1021E0003A3000F09BFC002008BD08B5806B00234E
:1021F000C385C384202380F8393080F83A30C36B1C
:1022000043F01003C36300F08FFC08BD10B584B029
:10221000044603681968DA6811F0010F0DD002F462
:10222000807252B1002200921A6800925A6800929D
:10223000009AC26B42F00102C26319685A6902F047
:10224000010211F0020F0BD052B1002201921A6864
:1022500001925A680192019AE26B42F00402E26331
:1022600019685A6902F0010211F0040F0BD052B143
:10227000002202921A6802925A680292029AE26B53
:1022800042F00202E26319685A6902F0010211F099
:10229000080F0BD052B1002203921A6803925A68B9
:1022A0000392039AE26B42F00802E2631A68DB6869
:1022B00003F0200312F0200F00D0ABB923681A6896
:1022C000DB6803F0800312F0800F00D083B923682D
:1022D0001A68DB6803F0400312F0400F00D05BB9CE
:1022E000E36B6BB904B010BD2046FFF730FFE5E7A4
:1022F0002046FFF7B7FCEAE72046FFF715FFEFE7B8
:10230000202384F8393084F83A30204600F00CFC61
:10231000E8E7FEE708B503460C4A12685AB10B4AD3
:102320001068033323F003030344094A934206D899
:10233000064A136008BD0749044A1160EFE700F040
:10234000F9FE0C2303604FF0FF3008BDDC090020CC
:1023500000FC0220180D002001230360014B0B60DC
:10236000704700BF040000200FB400B583B004AB79
:1023700053F8042B01938021064802F077FA0028D5
:1023800003DD0146034800F007F803B05DF804EBF5
:1023900004B07047E40900204FF0FF3070470000A0
:1023A00008B500F089F8024B024A9A6008BD00BFE8
:1023B00000ED00E00000000808B500F09DF808BD41
:1023C000F8B504460D4617461E462748FFF7CCFFD2
:1023D00021682648FFF7C8FF61682548FFF7C4FF5A
:1023E000A1682448FFF7C0FFE1682348FFF7BCFF5E
:1023F00021692248FFF7B8FF61692148FFF7B4FF60
:10240000A1692048FFF7B0FFE1691F48FFF7ACFF63
:102410001E48FFF7A9FF29461D48FFF7A5FF1D4CE1
:10242000E16A1D48FFF7A0FF216B1C48FFF79CFFE6
:10243000E16B1B48FFF798FF15F0800F0AD115F4E8
:10244000004F0CD11748FFF78FFF06991648FFF78A
:102450008BFFF8BD39461548FFF786FFEFE7314699
:102460001348FFF781FFEDE70876000818760008AB
:102470002876000838760008487600085876000864
:102480006876000878760008887600089876000854
:10249000A476000800ED00E0B4760008C4760008D9
:1024A000D4760008047700080C770008E47600086A
:1024B000F4760008FEE700000C4B1A6842F00102B7
:1024C0001A60002199601A6822F0847222F4803226
:1024D0001A60074A5A601A6822F480221A60D9608A
:1024E0004FF00062034B9A60704700BF0038024013
:1024F0001030002400ED00E0224B9B6803F00C0339
:10250000042B14D0082B16D01BB11F4A1F4B1A6086
:1025100002E01D4A1D4B1A601A4B9B68C3F303135C
:102520001B4AD15C194A1368CB4013607047194AA3
:10253000164B1A60F0E7134B5A685B6803F03F03D1
:1025400012F4800F13D0134AB2FBF3F20D4B5B6809
:10255000C3F3881303FB02F30A4A5268C2F3014231
:1025600001325200B3FBF2F3084A1360D4E7064A83
:10257000B2FBF3F2034B5B68C3F3881303FB02F374
:10258000EAE700BF003802400024F4000C000020FD
:102590005077000800127A0010B5FDF753FF614B29
:1025A0001860614B1B68C01AA0F2F510B0F5F97FF6
:1025B00003D85E4B1B78002B39D05A4B1B685A4A04
:1025C00012689B1AA3F2E933B3F5F97F03D8574B8E
:1025D0001B78012B43D0534B1B68534A12689B1A3C
:1025E000A3F2DD53B3F5F97F03D8504B1B78022BD0
:1025F0004ED04C4B1A684C4B1B68D31AB3F5FA6F8C
:1026000003D94A4B1B78032B5BD0494B1B785BB239
:1026100043B10022464B1A70464B1B68012B6BD00E
:10262000444B1B684FF4AF70FDF712FF10BD01243F
:102630003E4B1C704FF480413F48FEF7EFFD3F4892
:10264000036B40F207221A60036B00219960036B51
:102650001C61036B21221A75FEF752F8ADE70222C6
:10266000324B1A704FF480413348FEF7D7FD3348A0
:10267000036B40F207221A60036B00219960036B21
:1026800001221A61036B41221A75FEF739F8A2E79D
:102690000322264B1A704FF480412748FEF7BEFDF7
:1026A0002648036B40F207221A60036B00219960F1
:1026B000036B01221A61036B40221A75FEF720F8A2
:1026C00097E70024194B1C70174B1A604FF4804198
:1026D0001948FEF7A3FD1948036B40F207221A6060
:1026E000036B9C60036B01221A61036B20221A7535
:1026F0002146FEF705F888E74FF400510E48FEF733
:102700008DFD0E48036B40F201121A60036B00212D
:102710009960036B02221A61036B1F221A75FDF781
:10272000EFFF7DE7680A0020640A00206C0A0020A1
:10273000290B0020240B002000180240900B0020E1
:102740002DE9F04F8BB004460D4601929A460026C3
:102750000396404B1A6C42F000721A641A6C02F035
:1027600000720392039A04961A6B42F008021A63ED
:102770001B6B03F008030493049B374B1E704FF050
:102780000108CDF81C804FF00209CDF81890CDF863
:1027900014904FF0030BCDF820B00927099705A935
:1027A0002E48FEF743FCCDF81C80CDF81890CDF8EC
:1027B0001480CDF820B0099705A92848FEF736FC0B
:1027C000274B2360019B2363C4F834A0A661E66114
:1027D00026626662A662E662A660E6604FF4803317
:1027E00023614FF48013636167602046FDF7C8FEE4
:1027F00050BB00236B61AB610122EA612B606B600F
:10280000AB60EB602B612A620E236B622946204687
:10281000FDF72CFED8B9236B40F221321A60236BEE
:1028200001225A60236B0022DA60236B9A60236BCB
:102830000221196107211420FEF746FA1420FEF741
:1028400075FA0BB0BDE8F08F00F06FF9D1E700F03A
:102850006CF9E0E700380240290B0020000C024030
:10286000006400402DE9F04F89B006460024009432
:10287000534B5A6C42F010025A645A6C02F0100228
:102880000092009A01941A6B42F480021A631A6B48
:1028900002F480020192019A02941A6B42F0010242
:1028A0001A631B6B03F001030293029B0123059340
:1028B000022304934FF400720392069307270797AD
:1028C000404D03A92846FEF7B1FB4FF48068CDF8D0
:1028D0000C80079703A92846FEF7A8FB3A4B336004
:1028E0004FF461237360B460F4603461B4610C230D
:1028F0007361F4613046FFF78CFB344D344B2B6031
:102900004FF0006BC5F804B04023AB60EC60C5F835
:1029100010806C61AC61EC612C626C620327AF6269
:102920004FF4000AC5F82CA04FF40019C5F83090F8
:102930002846FEF73BFA3563AE63264D264B2B60E7
:10294000C5F804B0AC60EC60C5F810806C61AC6197
:10295000EC614FF400332B626C62AF62C5F82CA0BF
:10296000C5F830902846FEF721FA7563AE63012260
:1029700039464620FEF7A8F94620FEF7D7F9224649
:1029800039464420FEF7A0F94420FEF7CFF922464D
:1029900006212520FEF798F92520FEF7C7F90F221A
:1029A0000E493046FFF764FB0D4B1B78DBB2012B61
:1029B000FAD100220A4B1A7009B0BDE8F08F00BFAF
:1029C000003802400000024000100140C80A002008
:1029D000B8640240700A00208864024010000020A1
:1029E000200B002008B502460C490D4800F042FCBF
:1029F000002201E00132D2B2094B9B56002BF9D1E3
:102A000007490848FFF734FB074B1B78DBB2012B63
:102A1000FAD10022044B1A7008BD00BF8C77000861
:102A20001C0C0020D40B0020200B002010B586B019
:102A30000B9C05940A9C0494099C0394089C0294A2
:102A4000019300920B4602460C490D4800F012FC1F
:102A5000002201E00132D2B2094B9B56002BF9D182
:102A600007490848FFF704FB074B1B78DBB2012B33
:102A7000FAD10022044B1A7006B010BD607700082E
:102A80001C0C0020D40B0020200B002030B595B08A
:102A9000002401941C4B1A6C42F080521A641B6C87
:102AA00003F080530193019B0294184B1A6842F47F
:102AB00040421A601B6803F440430293029B0123C7
:102AC00003930493022509954FF480030A93082386
:102AD0000B934FF4B4730C930D9507230E9303A837
:102AE000FEF7F2FBFEF7A0FB0F230F931095119456
:102AF0004FF4A05312934FF48053139305210FA862
:102B0000FEF784FD15B030BD003802400070004073
:102B10000122014B1A707047200B00200122014B4B
:102B20001A707047200B00207047FEE738B500246C
:102B3000114B1C70114B1C60114B1C70FDF760FC9D
:102B4000FFF7A4FF204600F059F8012000F056F8E6
:102B50000C48FFF787FE0C4D0C4B0D4A0D492846DB
:102B6000FFF7EEFD21462846FDF7AAFE10B9FFF754
:102B700013FDFCE7FFF7D9FF8C0B0020140C00209D
:102B8000D00B0020D40B0020900B0020880C0020DC
:102B90006C0C0020640B0020F0B585B0054613488E
:102BA000FFF720FF6B6B1A7D114B1A700122114B3E
:102BB0001A601148FFF716FF6C6B207D617DA27DC6
:102BC000E37D267E677E94F81AE0E47E0394CDF8D8
:102BD00008E001970096FFF729FF00212846FDF73E
:102BE0006FFE08B905B0F0BDFFF79FFF90770008B2
:102BF0008C0B0020140C00209C77000870B588B066
:102C0000044670B1012818D100230293164B1A6BA9
:102C100042F040021A631B6B03F040030293029BD5
:102C20000BE000230193104B1A6B42F040021A6331
:102C30001B6B03F040030193019B0C4B33F81460B2
:102C4000039601230493059302230693084D03A9D9
:102C500055F82400FEF7EAF90022314655F8240021
:102C6000FEF7D6FA08B070BD00380240A47700081D
:102C7000200000202DE9F04188B0002601961C4B71
:102C80001A6C42F000721A641A6C02F0007201921F
:102C9000019A02961A6B42F008021A631B6B03F04A
:102CA00008030293029B02240394049406940125D2
:102CB00005954FF00908CDF81C800E4F03A9384642
:102CC000FEF7B4F90395049406940595CDF81C809D
:102CD00003A93846FEF7AAF9324629461420FDF723
:102CE000F3FF1420FEF722F808B0BDE8F08100BF22
:102CF00000380240000C02407047FEE7FEE7FEE7A6
:102D0000FEE770477047704708B5FDF793FB08BDB5
:102D100008B5024B586BFEF7AFF808BDD40B002086
:102D200008B5024B186BFEF7A7F808BDD40B0020BE
:102D300008B50248FFF76AFA08BD00BFD40B0020AF
:102D40007047704708B50748436B93F91410064A5B
:102D500011700121054A11701A68054B1A60FDF7C0
:102D6000DFFE08BD900B0020280B0020290B00205F
:102D7000240B002008B50248FDF7D2FE08BD00BFB5
:102D8000900B002008B50248FDF7CAFE08BD00BF41
:102D9000900B002008B50248FDF7C2FE08BD00BF39
:102DA000900B002008B50248FDF7BAFE08BD00BF31
:102DB000900B002008B50248FDF7B2FE08BD00BF29
:102DC000900B002081F0004102E000BF83F000433F
:102DD00030B54FEA41044FEA430594EA050F08BFB6
:102DE00090EA020F1FBF54EA000C55EA020C7FEA7A
:102DF000645C7FEA655C00F0E2804FEA5454D4EBF7
:102E00005555B8BF6D420CDD2C4480EA020281EAC0
:102E1000030382EA000083EA010180EA020281EAF8
:102E20000303362D88BF30BD11F0004F4FEA01314A
:102E30004FF4801C4CEA113102D0404261EB410159
:102E400013F0004F4FEA03334CEA133302D05242DF
:102E500063EB430394EA050F00F0A780A4F101049B
:102E6000D5F1200E0DDB02FA0EFC22FA05F28018D5
:102E700041F1000103FA0EF2801843FA05F35941BB
:102E80000EE0A5F120050EF1200E012A03FA0EFC3A
:102E900028BF4CF0020C43FA05F3C01851EBE37164
:102EA00001F0004507D54FF0000EDCF1000C7EEB81
:102EB00000006EEB0101B1F5801F1BD3B1F5001FBF
:102EC0000CD349085FEA30004FEA3C0C04F10104DE
:102ED0004FEA445212F5800F80F09A80BCF1004F07
:102EE00008BF5FEA500C50F1000041EB045141EA89
:102EF000050130BD5FEA4C0C404141EB010111F48A
:102F0000801FA4F10104E9D191F0000F04BF014634
:102F10000020B1FA81F308BF2033A3F10B03B3F112
:102F200020020CDA0C3208DD02F1140CC2F10C02A2
:102F300001FA0CF021FA02F10CE002F11402D8BF00
:102F4000C2F1200C01FA02F120FA0CFCDCBF41EACC
:102F50000C019040E41AA2BF01EB0451294330BD9B
:102F60006FEA04041F3C1CDA0C340EDC04F1140478
:102F7000C4F1200220FA04F001FA02F340EA03004F
:102F800021FA04F345EA030130BDC4F10C04C4F195
:102F9000200220FA02F001FA04F340EA0300294675
:102FA00030BD21FA04F0294630BD94F0000F83F4BF
:102FB000801306BF81F480110134013D4EE77FEAA2
:102FC000645C18BF7FEA655C29D094EA050F08BFEE
:102FD00090EA020F05D054EA000C04BF19461046CF
:102FE00030BD91EA030F1EBF0021002030BD5FEA13
:102FF000545C05D14000494128BF41F0004130BD3B
:1030000014F580043CBF01F5801130BD01F000458E
:1030100045F0FE4141F470014FF0000030BD7FEA01
:10302000645C1ABF194610467FEA655C1CBF0B46FC
:10303000024650EA013406BF52EA033591EA030F13
:1030400041F4002130BD00BF90F0000F04BF00210B
:10305000704730B54FF4806404F132044FF000053E
:103060004FF0000150E700BF90F0000F04BF0021B7
:10307000704730B54FF4806404F1320410F000451D
:1030800048BF40424FF000013EE700BF42004FEA18
:10309000E2014FEA31014FEA02701FBF12F07F4395
:1030A00093F07F4F81F06051704792F0000F14BF92
:1030B00093F07F4F704730B54FF4607401F00045D6
:1030C00021F0004120E700BF50EA010208BF70472D
:1030D00030B54FF000050AE050EA010208BF704722
:1030E00030B511F0004502D5404261EB41014FF48B
:1030F000806404F132045FEA915C3FF4DCAE4FF08F
:1031000003025FEADC0C18BF03325FEADC0C18BF75
:10311000033202EBDC02C2F1200300FA03FC20FAC6
:1031200002F001FA03FE40EA0E0021FA02F1144413
:10313000C1E600BF014B1868704700BF280000209F
:10314000844641EA000313F003036DD1403A41D3B2
:1031500051F8043B40F8043B51F8043B40F8043B71
:1031600051F8043B40F8043B51F8043B40F8043B61
:1031700051F8043B40F8043B51F8043B40F8043B51
:1031800051F8043B40F8043B51F8043B40F8043B41
:1031900051F8043B40F8043B51F8043B40F8043B31
:1031A00051F8043B40F8043B51F8043B40F8043B21
:1031B00051F8043B40F8043B51F8043B40F8043B11
:1031C00051F8043B40F8043B51F8043B40F8043B01
:1031D000403ABDD2303211D351F8043B40F8043BA1
:1031E00051F8043B40F8043B51F8043B40F8043BE1
:1031F00051F8043B40F8043B103AEDD20C3205D3B1
:1032000051F8043B40F8043B043AF9D2043208D0A8
:10321000D2071CBF11F8013B00F8013B01D30B881A
:1032200003806046704700BF082A13D38B078DD0F8
:1032300010F003038AD0C3F10403D21ADB071CBFCA
:1032400011F8013B00F8013B80D331F8023B20F834
:10325000023B7BE7043AD9D3013A11F8013B00F86D
:10326000013BF9D20B7803704B7843708B788370F5
:10327000604670470EB4F0B59CB021AB0F4953F8CF
:10328000042B019305466FF00044086802954FF443
:1032900002774FF6FF7602A90695ADF814700494F4
:1032A0000794ADF8166000F079F8029B00221A70BE
:1032B0001CB0BDE8F04003B0704700BF28000020FC
:1032C00090F800F06DE9024520F007016FF0000C66
:1032D00010F0070491F820F040F049804FF000040E
:1032E0006FF00700D1E9002391F840F000F10800E9
:1032F00082FA4CF2A4FA8CF283FA4CF3A2FA8CF321
:103300004BBBD1E9022382FA4CF200F10800A4FA87
:103310008CF283FA4CF3A2FA8CF3E3B9D1E90423DB
:1033200082FA4CF200F10800A4FA8CF283FA4CF312
:10333000A2FA8CF37BB9D1E9062301F1200182FACC
:103340004CF200F10800A4FA8CF283FA4CF3A2FAD2
:103350008CF3002BC6D0002A04BF04301A4612BAE0
:10336000B2FA82F2FDE8024500EBD2007047D1E9E3
:10337000002304F00305C4F100004FEAC50514F072
:10338000040F91F840F00CFA05F562EA05021CBF43
:1033900063EA050362464FF00004A9E72DE9F04F08
:1033A000C3B00C460B9192460F930C9002F02EFA8C
:1033B00003681A931846FFF783FFA389199019062B
:1033C00003D52369002B01F0038000230DF1C80908
:1033D0001393159314932793269318931B93099390
:1033E000CDF89490C846169317939AF80030544637
:1033F000E3B1252B02D119E0252B03D014F8013FAE
:10340000002BF9D1A4EB0A0585B1269B279AC8F8B1
:1034100000A001332A44072BC8F8045027922693B2
:103420007FDC08F10808099B2B4409932378002BC3
:103430007FD000231A468DF8773019460D939B46AE
:103440004FF0FF3063780A9004F1010A0AF1010A93
:10345000A3F12000582800F2C183DFE810F0380201
:10346000BF03BF034002BF03BF03BF03BF03BF03CC
:10347000BF0345020302BF035D006B02BF03860268
:103480009D039D039D039D039D039D039D039D033C
:103490009D03BF03BF03BF03BF03BF03BF03BF033E
:1034A000BF03BF03BF0337035703BF035703BF0364
:1034B000BF03BF03BF039803BF03BF03AD03BF0335
:1034C000BF03BF03BF03BF035902BF03BF031E03F4
:1034D000BF03BF03BF03BF03BF03BF03BF03BF03DC
:1034E000BF03BF03C602DB025703570357038B0218
:1034F000DB02BF03BF039002BF039D02CC01B402F5
:103500000802BF03E101BF037E00BF03BF030D023A
:103510000D980F9340420D904BF0040B9AF8003039
:1035200094E725AA0B990C9802F09AFF40B9C84677
:1035300079E7279B23B10C980B9925AA02F090FFFD
:103540000B9B9B8913F0400F099B18BF4FF0FF3373
:103550000993099843B0BDE8F08F1BF0200F119339
:1035600040F0DD810F9A1BF0100F134640F06E857E
:103570001BF0400F00F06A851488043200250123F7
:103580000F9200278DF877700A994A1C00F0658227
:103590002BF08002079254EA050240F06482002971
:1035A00040F03C84002B40F0D7841BF001030E93C5
:1035B00000F0048642AE302306F8413D0A9B0E9A85
:1035C0009342B8BF134608930023129317B1089B88
:1035D00001330893079B13F00203109302D0089B5A
:1035E00002330893079B13F0840540F00E830D9B74
:1035F000089AA3EB020BBBF1000F40F30683BBF16B
:10360000100F279C269A29DD43462146A8461027FD
:103610000C9C0B9D06E0ABF1100BBBF1100F03F1FE
:10362000080318DD0132B74826921031072A279186
:1036300083E88100EFDD25AA2946204602F010FF2D
:1036400000287FF47DAFABF1100BBBF1100F279971
:10365000269A4B46E6DC45460C4698460132A94B75
:1036600026925C44072A279488E8080800F3988487
:103670009DF8777008F1080877B1269B0133013473
:103680000DF177010122072B2794269388E8060085
:1036900000F3DB8308F10808109B6BB1269B013314
:1036A00002341EA90222072B2794269388E80600DD
:1036B00000F3D68308F10808802D00F015830A9BDB
:1036C0000E9A9F1A002F36DD102F269B8E4D27DD78
:1036D00042462146B0464FF0100B2E460C9C0B9DE7
:1036E00004E0103F102F02F1080215DD0133103104
:1036F000072B2791269382E84008F2DD25AA294668
:10370000204602F0ADFE00287FF41AAF103F102FC4
:103710002799269B4A46E9DC35460C4646469046A4
:1037200001333C44072B2794269388E8A00000F33C
:10373000818308F10808079BDF0500F16882269B5A
:103740000E99C8F8006001330C44072B2794C8F881
:103750000410269300F34D8308F10808079B5B07CC
:103760003AD50D9B089A9D1A002D35DD102D269B0C
:1037700020DD10260C9FDDF82CB004E0103D102D4C
:1037800008F1080816DD01335E4A26931034072B32
:10379000279488E84400F1DD25AA5946384602F00E
:1037A0005FFE00287FF4CCAE103D102D279C269B99
:1037B000C846E8DC0133534A26932C44072B279450
:1037C00088E8240008DD25AA0B990C9802F048FE31
:1037D00000287FF4B5AE279C099B0D9A08998A4270
:1037E000ACBF9B185B180993002C40F00D8300239D
:1037F0002693C846F9E511931BF0200340F0E381BE
:103800001BF0100240F02E841BF0400300F02A84CD
:103810000F9913460A4604320C880F920025B0E631
:103820000F9A1193166800248DF87740151D002E0D
:1038300000F0A7860A9A531C00F0098621463046FC
:1038400002F0A6FA002800F0E186831B0E930A948A
:103850000F95CDF81CB023EAE373089312949DF8FA
:103860007770B3E69AF8003001222B21EEE54BF099
:10387000200B9AF80030E9E51193002A40F0958773
:10388000224B18931BF0200F40F011810F9A1BF070
:10389000100F134640F0E1831BF0400F00F0DD8372
:1038A000043314880F9300251BF0010F00F00C81E6
:1038B00054EA050300F0088130239DF844208DF878
:1038C00078308DF879204BF0020B022359E69AF8F4
:1038D000003000297FF4BAAD01222021B6E54BF07B
:1038E000010B9AF80030B1E50F9C23680D93184640
:1038F0000028234603F10403FFF60AAE0F939AF85B
:103900000030A3E5EC770008FC770008CC770008CE
:103910004BF0100B1BF0200F11933FF423AE0F9DC3
:10392000073525F0070303F10802D3E900450F929C
:10393000012326E69AF800302A2B0AF1010400F050
:103940002787A3F130000928A24600F2AD860023A4
:103950001C461AF8013B04EB840400EB4404A3F179
:1039600030000928F5D90A9472E54BF0800B9AF8DB
:1039700000306BE54BF0400B9AF8003066E59AF8A2
:1039800000306C2B03BF9AF801304BF0200B0AF18A
:10399000010A4BF0100B59E5002A40F011871BF08B
:1039A000200F40F0F9841BF0100F40F0AC841BF0A6
:1039B000400F00F0A8840F9A136804320F92BDF8EC
:1039C00024201A8011E50F99B34B0C68189330220C
:1039D000782304318DF8793011934BF0020B0F915D
:1039E00000258DF878200223CBE50F9911930A6802
:1039F0008DF8A02000230A461F468DF87730043248
:103A000001230893CDF81CB00A9712970F920E93DA
:103A100028AEDFE51193002A40F0EA861BF0200F64
:103A20005DD11BF0100F40F008831BF0400F00F039
:103A300004830F99B1F900400431E51722462B4663
:103A40000F91002A73F1000358DB0A999DF87770F3
:103A50004A1C4FF001037FF49BAD54EA050200F0CD
:103A6000DF81CDF81CB0012B00F07B82022B40F0EF
:103A7000068218984E46230904F00F0143EA0573A5
:103A80002A091C461546435C06F8013D54EA050325
:103A9000F1D1A9EB06030E9390E51193002A40F0B3
:103AA000A3867E4B18931BF0200F3FF4EFAE0F9DC3
:103AB000073525F0070303F108021BF0010F0F92F1
:103AC000D3E900457FF4F4AE02235AE51193002AAE
:103AD00040F086864BF0100B1BF0200FA1D00F9DFD
:103AE000073525F00705D5E90023002A05F108016F
:103AF0001D4673F100030F911446A6DA2D27644288
:103B000065EB45058DF8777001233DE51193002A9B
:103B100040F062860F9D073525F0070303F1080288
:103B20000F921A6815925B681493149B159D23F0ED
:103B30000044284621464FF0FF32594B03F08EFBDC
:103B4000002840F04A83284621464FF0FF32544B6C
:103B500003F066FB002840F0408315A80DC81499B7
:103B600003F054FB002840F030859DF877704D4EEF
:103B70004D4B2BF0800007901198032200210892F2
:103B80000A914728D8BF1E460E9212911EE54BF0AF
:103B9000080B9AF8003059E4A3F1300000231C46CA
:103BA0001AF8013B04EB840400EB4404A3F1300059
:103BB0000928F5D90D944BE44BF0100B11931BF031
:103BC00020033FF41DAE0F9D073525F0070303F1D9
:103BD0000802D3E900450F920023D2E41193002A92
:103BE00040F0E785119A002A3FF4A3AC002301219D
:103BF0001F4608918DF8A020CDF81CB08DF87730C5
:103C00000A9312930E9128AEE4E4279C34E5119BAD
:103C1000652B40F3A78015A80DC8149903F0ECFAA2
:103C2000002800F05081269B204AC8F8002001336C
:103C300001340122072B27942693C8F8042000F3AF
:103C40006A8308F108081F9B139A279C934203DBA1
:103C5000079BDD077FF582AD269B19991A9AC8F854
:103C6000002001330C44072BC8F804102794269336
:103C700000F39E8308F10808139B5E1E002E7FF759
:103C80006DAD102E269B0A4D40F3F581224610277C
:103C9000DDF830B00B9C13E0CC770008B877000853
:103CA000FFFFEF7FAC770008A8770008E8770008EF
:103CB000FC77000808F10808103E102E40F3DA8166
:103CC00001331032072B2792269388E8A000F1DDFC
:103CD00025AA2146584602F0C3FB00287FF430ACE9
:103CE000279A269BC846E7E70D9B089A9F1A002F44
:103CF0007FF7E5AC102F269BB64D27DD42462146C7
:103D0000B0464FF0100B2E460C9C0B9D04E0103F6C
:103D1000102F02F1080215DD01331031072B279116
:103D2000269382E84008F2DD25AA2946204602F0C3
:103D300097FB00287FF404AC103F102F2799269B97
:103D40004A46E9DC35460C464646904601333C443B
:103D5000072B2794269388E8A00000F3328208F10D
:103D60000808ACE4139B269F012B40F3FE8101372A
:103D700001340123072F27942697C8F80060C8F85C
:103D8000043000F3038208F10808199A1A9BC8F856
:103D9000003001371444072F27942697C8F80420D1
:103DA00000F3008208F1080815A80DC8149903F063
:103DB00023FA139B002840F00181013B01370136B3
:103DC0001C44072F26972794C8F80060C8F80430D1
:103DD00000F3278108F108081B9AC8F8042001376E
:103DE000144421AB072F27942697C8F800307FF79B
:103DF000B3AC25AA0B990C9802F032FB00287FF493
:103E00009FAB279CC846A9E425AA0B990C9802F001
:103E100027FB00283FF4EBACFFF792BBDDF81CB0AA
:103E2000012B00F03481022B25D1CDF81CB00024E9
:103E300000251EE625AA0B990C9802F011FB00281C
:103E40007FF47EAB279CC84675E425AA0B990C9895
:103E500002F006FB00287FF473AB279CC8461BE4E6
:103E600025AA0B990C9802F0FBFA00287FF468ABA6
:103E7000279CC84620E4CDF81CB000240025494604
:103E800000E03146E20842EA4572E80804F0070320
:103E900005461446303354EA050201F8013C01F1AD
:103EA000FF36EED1079AD2077FF5F3AD302B3FF402
:103EB000F0AD0239302306F8013CA9EB01030E9363
:103EC0000E46FFF77BBB1F99002940F32E82129B01
:103ED000139A9342A8BF1346002B1F460DDD269B65
:103EE000C8F8006001333C44072B2794C8F80470DD
:103EF000269300F31F8308F10808129B002FA8BF28
:103F0000DB1B002B1F4640F3D680102F269B314D24
:103F100040F3ED8142462146B0464FF0100B2E464D
:103F20000C9C0B9D04E00832103F102F40F3DB8106
:103F300001331031072B2791269382E84008F2DDE8
:103F400025AA2946204602F08BFA00287FF4F8AA19
:103F50002799269B4A46E7E70A9B0E934E46FFF7B2
:103F60002DBB002D08BF0A2CC0F08F804E46204686
:103F700029460A22002303F0AFF9303206F8012D5A
:103F80002046294600230A2203F0A6F904460D46DE
:103F900054EA0503EBD1A9EB06030E93FFF70EBB22
:103FA00025AA0B990C9802F05BFA00287FF4C8AAA6
:103FB0009DF87770279CC846FFF75EBB5E1E002EFB
:103FC0007FF70AAF102E034D22DD22464FF0100B73
:103FD0000C9C06E0FC770008103E102E08F1080843
:103FE00015DD01371032072F2792269788E8200821
:103FF000F2DD25AA0B99204602F032FA00287FF460
:104000009FAA103E102E279A269FC846E9DC144628
:1040100001373444072F2794269788E860007FF7FC
:10402000D9AE25AA0B990C9802F01AFA00287FF451
:1040300087AA279C269FC846CEE60F9A1468134687
:104040000433E5170F9322462B46FAE404321C682A
:104050000F9201230025FFF794BA1C6804330F93D5
:10406000002521E40F990A4604320C680F920025BE
:10407000FFF787BA144601333444072B279426935D
:1040800088E860007FF768ABB3E6DDF81CB0CDF8D8
:104090001CB042AE3034012306F8414D0E93FFF7B9
:1040A0008DBA25AA0B990C9802F0DAF900287FF452
:1040B00047AA279CC8461F9A139B9A4244DB079B3A
:1040C000D90741D4139B12989A1A1D1A9542A8BF7A
:1040D0001546002D0EDD2699C8F80450013106441E
:1040E0002C440729C8F800602794269100F33B82EE
:1040F00008F10808002DACBF561B1646002E7FF7AE
:104100002DAB102E269BB04DB5DD22461027DDF8D5
:1041100030B00B9C04E008F10808103E102EA9DD19
:1041200001331032072B2792269388E8A000F2DD96
:1041300025AA2146584602F093F900287FF400AAE8
:10414000279A269BC846E8E7269B19981A99C8F82B
:10415000001001330444072B2794C8F80400269369
:1041600000F3F58108F10808ACE7079BDA073FF593
:10417000FEAD013701340123072F27942697C8F895
:104180000060C8F804307FF725AE4AE725AA0B99EE
:104190000C9802F065F900287FF4D2A9279C269F8D
:1041A000C846F2E525AA0B990C9802F059F90028A7
:1041B0007FF4C6A9279C269FC846F5E54E46FFF723
:1041C000FDB925AA0B990C9802F04AF900287FF452
:1041D000B7A9279CC846FFF772BA159C224620460D
:1041E000149C2346214603F039F8002840F08682CB
:1041F0000A9B0133119B23F020030E9300F0E28110
:10420000472B00F01E814BF480730793149B1F1EF5
:10421000159B0893BBBF3B4603F1004700232D23AA
:104220001093119B662B00F0BB81462B00F0DF80C2
:104230000E9B089A452B0CBF0A9B0A9D23A820A918
:1042400008BF5D1C049003911FA802213B46029009
:10425000019500910C9800F0AFFB119B672B06466F
:1042600040F0E0811BF0010F00F046827419169AAD
:104270000898179B394602F0BFFF002840F065817F
:10428000239BA34206D230215A1C23921970239BF0
:104290009C42F9D89B1B13930E9B472B00F0E9809F
:1042A000119B652B40F3CD81119B662B1F9B1293B5
:1042B00000F09E81139B129A1946914200F38A8165
:1042C0001BF0010F40F0138222EAE2730893672388
:1042D0000E921193109B002B40F0C4800A939DF81E
:1042E0007770FFF773B935460C4646469046013362
:1042F0003C44072B2794269388E8A0003FF7D1AED3
:1043000008F10808D7E60F9A136804320F92099A49
:104310001A60FFF76AB825AA0B990C9802F0A0F86A
:1043200000287FF40DA9C8468DE4269B274AC8F8CB
:104330000020013301340122072B27942693C8F86B
:10434000042072DC08F1080829B9139B1BB9079BEC
:10435000D8077FF503AA269B19981A9AC8F8002057
:10436000013302462244072B2792C8F80400269303
:1043700000F38D8108F108080029C0F265811399C6
:10438000C8F8006001338C18072B27942693C8F8CF
:1043900004107FF7E1A92CE50F9A09991368CD174E
:1043A0000846043229460F92C3E90001FFF71DB801
:1043B00025AA0B990C9802F053F800287FF4C0A8A6
:1043C000279CC84658E400BFFC770008E87700083F
:1043D00040210C9801F028FA0B9A10601061002817
:1043E00000F0F2810B9A40235361FEF7EEBF23A841
:1043F00020A90A9C049003911FA803210290089A07
:1044000001943B4600910C9800F0D6FA25460646EA
:10441000119B462B06EB05047FF429AF3378302B34
:1044200000F078811F9D2C4421E725AA0B990C9858
:1044300002F016F800287FF483A81F99279CC8462D
:1044400082E70A9B002B08BF01230A93DBE6304674
:104450000A94FEF735FF0F950E90CDF81CB0034679
:10446000FFF7F9B92D2700238DF877700A93FFF72E
:10447000AEB81F9B12931A46033304DB0A9B1946FE
:104480009142BFF617AF119B023B11939DF8443048
:104490008DF88430129B013B002B1F93BDBF129BF4
:1044A000C3F101032D222B22092B8DF8852040F327
:1044B00016810DF193042046AB4D00E0104685FBBC
:1044C0000312D917C1EBA20101EB8102A3EB420257
:1044D0003032092900F8012C0B4600F1FF32EDDCE7
:1044E00030330238D9B2844202F8011C40F26581AF
:1044F0000DF18600134601E013F8011B00F8011BC3
:10450000A342F9D101339B1A0DF18602134421AA6B
:104510009B1A139A1B93012A13440E9340F319819B
:104520000E9B199A13440E9323EAE3730893002316
:104530001293CFE625AA0B990C9801F091FF002861
:104540007EF4FEAF279CC846D7E42346A2E625AA00
:104550000B990C9801F084FF00287EF4F1AF1F9AAC
:10456000279CC846AEE525AA0B990C9801F078FF68
:1045700000287EF4E5AF1F9A139B279C9A1AC84621
:10458000B8E50A9B1296062B28BF06230A963746E3
:1045900008930F95CDF81CB00E93744EFFF716B824
:1045A00023A820A90A9D049003911FA8032102902B
:1045B000089A01953B4600910C9800F0FDF90646DB
:1045C00044192BE706230A931DE62D278DF87770F3
:1045D000FFF7CDBA199A139B1344129A0E93002A2F
:1045E00040F3B08023EAE37308936723119371E6E5
:1045F000002B40F3C3800A9A002A40F099801BF0F8
:10460000010F40F0958008930E9363E60A9B089390
:104610000E930A900F95CDF81CB012909DF877700C
:10462000FEF7D4BF119B472B7FF420AE1BF0010F88
:104630007FF4EEAE239B9B1B13930E9B472B3FF403
:1046400018AF1F9B129321E74F421031484D2FDACC
:104650001024DDF830B004E008F10808103F102FF6
:1046600026DD01331032072B27922693C8F800501D
:10467000C8F80440F0DD25AA0B99584601F0F0FE79
:1046800000287EF45DAF279A269BC846E6E725AA58
:104690000B990C9801F0E4FE00287EF451AF1F99AD
:1046A000279A269BC84667E600200A90FEF7D0BEF0
:1046B00001333A44072B88E8A0002792269308F19B
:1046C00008087FF75CAE25AA0B990C9801F0C8FE8C
:1046D00000287EF435AF279A269BC8464FE6303334
:1046E00030228DF887308DF8862022AB0FE7129BA1
:1046F000199A13440E9375E7239BCBE5149B1D4E2B
:10470000002BB6BF2D279DF877708DF877701A4B68
:10471000FFF72FBA169A0898179B394602F06CFDDE
:1047200000287FF47FAEC5F101051F952C449EE55E
:10473000129B199A13440A9A1A4422EAE2730E92BF
:104740000893C7E5129B0E9AC3F101031A4413465E
:10475000D0E71BF0010312937FF4E2AE0E9B23EA35
:10476000E3730893B6E500BF67666666E077000806
:10477000FC770008B4770008B07700080A9B13B9EB
:104780001BF0010F02D0199B0133D4E701233AE754
:104790000F9D9AF80130286840EAE0700A90284698
:1047A0000430A2460F90FEF751BE8DF87710FFF748
:1047B00067B88DF87710FFF715BA0DF18603A6E6F6
:1047C0008DF87710FFF7EBB80C9A0C2313604FF0BD
:1047D000FF330993FEF7BDBE8DF87710FFF79AB946
:1047E0008DF87710FFF776B98DF87710FFF759B984
:1047F0008DF87710FFF712B970B5141E9AB0054600
:104800002EDB1A464FF4027300910491ADF80C3080
:1048100011D0013C4FF6FF761E9B02946946059429
:10482000ADF80E60FEF7BAFD421C12DB009B0022C1
:104830001A701AB070BD1E9B02944FF6FF7669463F
:104840000594ADF80E60FEF7A9FD431C04DB1AB019
:1048500070BD8B232B60E9E78B232B601AB070BDF2
:104860008B2303604FF0FF30F1E700BF10B582B03B
:10487000054C0093246813460A4601462046FFF77C
:10488000BBFF02B010BD00BF2800002002690B6909
:10489000934200F38D802DE9F04F03F1FF3801F1D1
:1048A000140700F1140B57F828205BF828304FEA62
:1048B000880483B00132B3FBF2F90BEB04030094DC
:1048C00007EB040A0193B9F1000F39D000252E46F9
:1048D000BC46DE465CF8044BDEF80030A2B209FBB1
:1048E0000255220C2C0C09FB0242ADB2751B96B28C
:1048F000C6EB134615FA83F306EB23469BB243EA55
:104900000643E2454FEA12454EF8043B4FEA26467D
:10491000E0D2009B5BF8033093B9019C231F9B45B9
:104920000CD254F8043C4BB9A4F1080302E01A6815
:10493000043B1AB99B4508F1FF38F8D3C0F8108042
:10494000044601F07FFC00282EDB09F101095D46D9
:10495000002357F8041B28688AB29A1A0B0C12FA23
:1049600080F2C3EB104303EB224392B242EA0342CC
:10497000BA4545F8042B4FEA2343EAD25BF82820D6
:104980000BEB880382B91A1F93450BD253F8042C02
:1049900042B9083B02E01A68043B1AB99B4508F18A
:1049A000FF38F8D3C4F81080484603B0BDE8F08F54
:1049B00000207047000000002DE9F04F016C9BB013
:1049C0000446279E92469B4641B1426C4A600123B1
:1049D00093408B6001F05EFA00232364BBF1000F6B
:1049E0005D4635DB002333609D4BAB4315D050460D
:1049F00059460022002302F0FFFB804600282DD0FC
:104A0000269A01231360289B002B00F0BD80954857
:104A1000186001381BB0BDE8F08F269A42F20F7380
:104A20001360BAF1000F0DD1C5F3130555B9289BDA
:104A30008D48002BEED000F10803289A13601BB0BC
:104A4000BDE8F08F289B8948002BE3D0C31CF4E716
:104A500001232BF000453360AB46C5E718AA19AB1C
:104A60000192009352465B46204601F08BFC2B0DD1
:104A7000814671D0CBF3130242F07F51189FCDF8DD
:104A800050805046A3F2FF3641F440110022784B8B
:104A9000FEF79CF96CA3D3E9002302F045F96CA35F
:104AA000D3E90023FEF794F9CDE902013046FEF781
:104AB000DBFA69A3D3E9002302F036F902460B467C
:104AC000DDE90201FEF784F9CDE9040102F0DCFB27
:104AD000002202900023DDE9040102F097FB002888
:104AE00040F07381029D162D00F25D81614B03EB56
:104AF000C503D3E9000152465B4602F0A5FB00283E
:104B000000F0C5816B1E029300230E93BF1B7B1E1A
:104B1000069300F1548100230893029B002BC0F2FE
:104B20004581069A0D9311461944002306910C9372
:104B3000249B092B2AD8052B40F35B86043B249346
:104B40000025249B023B032B00F24286DFE813F092
:104B5000D403C902DF036104189F199E3E4406F284
:104B60003243202B40F38E81C3F1400306F2124002
:104B70009D402AFA00F02843FEF766FA0123013E21
:104B8000A1F1F871149381E73B4843E70021616488
:104B90002046259101F058F94FF0FF330A93259AEA
:104BA0000F9301230490206424920B93199B002BF4
:104BB000C0F2D980029A0E2A00F3D5802D4B03EB68
:104BC000C203D3E90023CDE90823259B002BC0F2C3
:104BD000BA83DDE9085650462A463346594602F064
:104BE000CDF902F051FB8046FEF73EFA2A463346E5
:104BF00002F09AF80B46024659465046FEF7E6F890
:104C0000049D08F130032B700A9B012B06460F46CA
:104C100005F1010568D00022184B02F085F800224A
:104C2000002306460F4602F0E7FA002840F088808D
:104C3000CDF82C904FF0000ADFF840B00C94DDE97D
:104C4000088928E0AFF3008061436F63A787D23FF4
:104C5000B3C8608B288AC63FFB799F501344D33F6B
:104C60000000F07FE97700080C7800081878000849
:104C70000000F83F48780008E8770008000024406A
:104C800002F052F80022002306460F4602F0B4FA62
:104C9000002840F0C18342464B463046394602F078
:104CA0006DF902F0F1FA0446FEF7DEF942464B4692
:104CB00002F03AF802460B4630463946FEF786F8CF
:104CC00004F1300E049E05F801EBA5EB060E0A9EDA
:104CD000B645CDE9060152465B46D1D1A046DDF886
:104CE0002C900C9C06460F4632463B4630463946D1
:104CF000FEF76EF806460F4602460B46DDE9080150
:104D000002F084FA48B932463B46DDE9080102F078
:104D100073FAA8B118F0010F12D015F8018C049A9B
:104D20006B1E04E09A4200F0018413F8018DB8F183
:104D3000390F03F10105F5D008F1010883F800806F
:104D40004946204601F0A6F80022029B2A70269AC6
:104D500001331360289B002B00F09E8304981D6094
:104D60001BB0BDE8F08F0B9A002A3ED0249A012A8E
:104D700040F311830A9B0C9A5F1EBA42C0F28F83E4
:104D8000D71B0A9B002BC0F28B84089D0A9B089AB4
:104D90001A440892069A01211A442046069201F00C
:104DA00013F9064624E001230E93AFE6089A029B0E
:104DB000D21A5B420C93002308920D93B8E6C7F118
:104DC0000103089300230693A7E6029D2846FEF7F9
:104DD0004BF902460B46DDE9040102F00DFA00280A
:104DE0007FF480AE6B1E02937CE60C9F089D0B9EA9
:104DF000002D0CDD069900290B4608DDA942089A12
:104E0000A8BF2B46D21AED1ACB1A089206930C9B18
:104E1000D3B10B9B002B00F0B782002F10DD314681
:104E20003A46204601F06CF94A46014606462046BD
:104E300001F0D4F849468046204601F02BF8C146DF
:104E40000C9BDA1B40F0A1820121204601F0BCF846
:104E50000D9B002B80461CDD01461A46204601F0C2
:104E60004FF9249B012B804640F3548200230C937E
:104E7000D8F8103008EB8303186901F055F8C0F139
:104E8000200010E0C3F120050AFA05F074E60E9048
:104E90003CE6249B012B40F3878200230C930D9B5F
:104EA0000120002BE4D1069A104410F01F0000F0FE
:104EB000A180C0F12003042B40F39E84089BC0F125
:104EC0001C00034408931346034405440693089BBF
:104ED000002B05DD49461A46204601F061F981465E
:104EE000069B002B05DD41461A46204601F058F985
:104EF00080460E9B002B40F086800A9B002B40F3DF
:104F000066820B9B002B00F09880002D05DD31465A
:104F10002A46204601F044F906460C9B002B40F03F
:104F2000378306960A9B049ADDF818B0013BD31824
:104F30000B930AF001030C931746C24651464846AC
:104F4000FFF7A4FC31460546484601F07BF95A4676
:104F50000A905146204601F091F9C268804605F159
:104F60003003002A40F02B8201464846089301F0A6
:104F700069F941460690204600F08CFF069A089B8E
:104F800032B9249921B90C9A002A00F0EF83249AAF
:104F90000A990029C0F29F8205D1249919B90C9968
:104FA000002900F09882002A00F306830B9A3B70D8
:104FB00007F101089742454600F00C83494600235B
:104FC0000A22204600F070FF5E45814631464FF0D0
:104FD00000034FF00A02204600F0EB8100F064FF6E
:104FE0005946064600230A22204600F05DFF474648
:104FF0008346A3E71C20089B03440893069B0344B5
:105000000544069363E74146484601F01BF9002832
:10501000BFF673AF029F494600230A222046013F94
:10502000029700F041FF0B9B8146002B40F0B683B6
:105030000F9B002B40F3BF830A93DDF810B00A9F4B
:105040005D4602E000F030FF814641464846FFF7EA
:105050001DFC00F1300A05F801ABA5EB0B03BB42C8
:105060004FF00A024FF0000349462046EADB049B5A
:105070000A9A012AACBF9B1801331D464FF0000B62
:1050800049460122204601F08BF84146814601F055
:10509000D9F8002840F33D8215F8012C04996B1EC5
:1050A00004E08B4200F0AE8113F8012D392A03F1A0
:1050B0000105F6D001321A704146204600F0EAFEA2
:1050C000002E3FF43DAEBBF1000F05D0B34503D039
:1050D0005946204600F0DEFE3146204600F0DAFE5A
:1050E0002EE600230B93029B259A13440F93013362
:1050F000012B1F461E460A93B8BF01270021172F18
:1051000061640AD9012204235B0003F11400874281
:10511000114602F10102F7D26164204600F094FECC
:105120000E2E049020643FF641AD002D3FF43EADBD
:1051300002990029CDE910AB40F30282B84B01F08F
:105140000F020D1103EBC203E906D3E9006740F13A
:10515000AE81B44B50465946D3E9082301F00EFF07
:10516000CDE9120105F00F054FF0030A8DB1DFF80C
:10517000B482EA0709D530463946D8E9002301F060
:10518000D3FD0AF1010A06460F466D1008F1080822
:10519000EFD13B463246DDE9120101F0EFFE074652
:1051A00088460E9B43B100229F4B3846414602F091
:1051B0002DF8002840F086825046FDF755FF3A460C
:1051C000434601F0B1FD994B0022FDF701FE0A9B19
:1051D0000546A1F15076002B00F03E81029B15930D
:1051E0000A9B12930B9B002B00F0FA81129A8C4BB6
:1051F0008F4903EBC20353E90223002001F0BEFEF6
:105200002A463346FDF7E2FD82468B463846414644
:1052100002F03AF80546FDF727FF02460B463846EE
:105220004146FDF7D3FD30355FFA85F8049D06460B
:105230000F4685F8008002460B4650465946013518
:1052400002F002F8002854D132463B46002076494D
:10525000FDF7BCFD02460B465046594601F0F4FFEF
:10526000002840F07082129A012A00F01181129BEE
:10527000049ACDF84890134499460DE000206A49FD
:10528000FDF7A4FD52465B4601F0C0FF002840F048
:1052900058824D4500F0FA80504659460022654B31
:1052A00001F042FD0022634B82468B463046394670
:1052B00001F03AFD0F46064601F0E6FF8046FDF795
:1052C000D3FE02460B4630463946FDF77FFD08F116
:1052D00030085FFA88F852465B4605F8018B0646AF
:1052E0000F4601F093FF32463B460028C6D0DDF85A
:1052F0004890159B029323E500230B93259B002BDD
:1053000040F3DC801F461E460F930A93F6E6012306
:105310000B93F3E7BAF1000F7FF4A8ADCBF31303BF
:10532000002B7FF4BAAD2BF000473F0D3F05002F57
:1053300000F00D82089B01330893069B013306930E
:1053400001230C93ABE50A9B002B3FF742AC40F0E6
:1053500021820022384BDDE9080101F0E5FC5246CC
:105360005B4601F067FFDDF828804646002841D003
:10537000259B049DDB4302934146204600F08AFDB5
:10538000002E3FF4DDACA7E60C9A4946204600F01B
:10539000B7FE814658E5149A002A00F0878103F28F
:1053A00033430C9F089DF2E4BAF1000F7FF475AD12
:1053B000B4E700F079FD474606468346BEE5014660
:1053C0002046069300F066FD0122069BE0E5249B43
:1053D000022B7FF796AD0A9B002BC9D141460522CF
:1053E000204600F061FD01468046484600F02AFF55
:1053F0000028BDDD029A04993123013202920B701C
:105400004D1CB9E7029A01320292049A31231370BB
:1054100052E601230B9366E6DDF82C900C9C8FE49A
:1054200048780008207800080000F03F00001C4089
:105430000000E03F00002440000014405046FDF70B
:1054400013FE3A46434601F06FFC0022C14BFDF7C4
:10545000BFFC0546A1F1507641460022BE4B3846BE
:10546000FDF7B4FC2A46334682468B4601F0ECFE3B
:105470008046002840F010812A4606F1004350463D
:10548000594601F0C3FE18B1464671E7DDF8489071
:10549000DDE910ABFFF78ABB0498FFF7BBBA0C9BA2
:1054A0000D9A0C97FB1A1A440D92002769E4DDE966
:1054B00010234FF0020ACDE9122357E60021012301
:1054C00061642046259300F0BFFC259B0490206476
:1054D0000A930F9329E6002AD046CDF818B09A46D1
:1054E00011DD49460122204600F05AFE4146814620
:1054F00000F0A8FE002840F34681BAF1390F00F011
:10550000068105F1310AB34687F800A07D1C069E8E
:10551000D2E504D11AF0010F01D0BDE5154615F80A
:10552000013C302B05F1FF32F8D0C5E5049930225B
:105530000A70029A15F8018C01320292FFF7FCBB47
:1055400000F0BB80029B5D42844B05F00F0203EB31
:10555000C203D3E90023DDE9100101F0E5FB2D11C1
:105560000746884600F02C817D4E4FF0020AEB077B
:1055700009D538464146D6E9002301F0D5FB0AF1AA
:10558000010A074688466D1006F10806EFD108E6C5
:105590007168204600F058FC336902339A000546D2
:1055A00006F10C010C30FDF7CBFD29460122204607
:1055B00000F0F6FD0690B5E4392BCDF818B0D046D2
:1055C00000F0A58003F1010AB34687F800A07D1C16
:1055D000069E71E55A46D046B3469A4616464FE5B2
:1055E000129B5E4901EBC3012A46334651E9020191
:1055F00001F09AFBCDE916013846414601F044FE20
:105600000546FDF731FD0B46024641463846FDF79B
:10561000DDFB129B0F4604993035012B0D700646B9
:1056200001F1010526D0129B049ADFF83CB1CDF8B8
:10563000489013444FF0000A994652465B46304664
:10564000394601F071FB0F46064601F01DFE80460B
:10565000FDF70AFD08F1300802460B463046394690
:10566000FDF7B4FB05F8018B4D4506460F46E4D126
:10567000DDF848903B4B0022DDE91601FDF7A8FB61
:1056800032463B4601F0C2FD002846D0159B0293EE
:1056900015F8018CFFF743BB4FF000084646A9E61A
:1056A000089B0A9A9D1A0023FFF771BB189B0C9F59
:1056B000089DC3F13603FFF76ABBDDE910784FF0B0
:1056C000020A6EE50A9B002B3FF4B8AE0F9B002B3D
:1056D0007FF7DEAE0022244B3846414601F024FB22
:1056E000074688460AF10100FDF7BEFC3A464346EC
:1056F00001F01AFB0022174BFDF76AFB029A0F9B81
:105700001293013A0546A1F1507615926AE53922C5
:10571000B3463A70069E7D1CC0E4DDE916230020E6
:105720001049FDF753FB32463B4601F08DFD08B9A9
:10573000AEE6154615F8013C302B05F1FF32F8D0E6
:10574000D7E5DDF84890159B0293FFF7E8BA0C9770
:10575000FFF7A5BB00001C4000001440487800087B
:10576000207800080000E03F00002440392BCDF8ED
:1057700018B0D046DDF828B09A46C8D0BBF1000F6B
:105780003FF7BFAEBFE67FF4BEAE1AF0010F3FF4A5
:10579000BAAEB2E64FF000084646E9E531460023CE
:1057A0000A22204600F080FB0F9B002B06460ADDF4
:1057B0000A93FFF7AABB249B022B23DC0F9B3BE43D
:1057C0004FF0020AEDE4249B022B1BDC0F9BEFE75A
:1057D000002565642946204600F036FB4FF0FF3374
:1057E0000A930F9301230490259520640B93FFF7F0
:1057F000DDB90125FFF7A5B93FF469ABC0F13C0065
:10580000FFF7F9BB0F9B0A93E5E500BF044A054B80
:105810001268506B002808BF1846F030704700BF70
:1058200028000020680800202DE9F04F01F10B0648
:10583000162E83B0054640F29E8036F0070600F132
:10584000BD80B14200F2BA8000F0F2FAB6F5FC7FFA
:10585000C0F09382730A00F0B880042B00F27981C3
:10586000B30903F1390003F1380EC300BF4F3B44C5
:10587000A3F108015C68A14206D10CE0002A80F285
:10588000AA80E468A14206D0636823F003039A1B50
:105890000F2AF3DD70463C69DFF8E4E2744500F05E
:1058A000AB81636823F003039A1B0F2A00F39081F6
:1058B000002AC7F814E0C7F810E080F29D80B3F525
:1058C000007F80F06181DB0803F1010C99107A6898
:1058D00057F83C80C4F8088001238B4007EBCC01CB
:1058E00013430839E1607B6047F83C40C8F80C403E
:1058F0008210012494409C4200F28B801C4206D10D
:1059000020F0030064001C4200F10400FAD007EB11
:10591000C009CC468046DCF80C309C4507D16DE1CF
:10592000002A80F27B81DB689C4500F06781596822
:1059300021F003018A1B0F2AF2DDD3F80CC0D3F843
:10594000088000939C19284646F0010642F00105A4
:105950005E60C8F80CC0CCF808807C613C61C4F87B
:105960000CE0C4F808E065605A5000F067FA009B4C
:1059700003F108041EE0102920D800F059FA10267F
:1059800018230220794F3B44A3F108025C6894423B
:1059900000F03D816368E168A66823F003032344B7
:1059A00028465A68F16042F001028E605A6000F0A9
:1059B00045FA0834204603B0BDE8F08F00240C23DC
:1059C00020462B6003B0BDE8F08F40204FF40073F9
:1059D0004FF03F0E4AE72344E1685A68A66842F058
:1059E0000102F16028468E605A6000F027FA083400
:1059F000204603B0BDE8F08F234428465A6842F0A1
:105A000001025A6000F01AFA0834204603B0BDE8DB
:105A1000F08FBC68636823F00308B04504D3A8EB9B
:105A200006030F2B00F38580DFF85891504BD9F80F
:105A300000201B680132334404EB080A00F0558152
:105A400003F580530F3323F47F6B2BF00F0B594674
:105A5000284600F0F3FC411C024600F0FC80824521
:105A600000F2F780434B19685944196000F04D81EA
:105A7000D9F8000001301BBFA2EB0A0A5144C9F853
:105A80000020196012F0070100F01581C1F1080033
:105A9000C1F580510244083102EB0B09C9F30B092F
:105AA000A1EB0909494628460193009200F0C6FC83
:105AB000431C9DE80C0000F04381801A484440F0EC
:105AC00001001968BA604944BC425060196017D09F
:105AD000B8F10F0F40F2FB806068A8F10C0222F0D1
:105AE000070204EB020E00F001004FF0050C10431A
